{
  "address": "0xe7f1725E7734CE288F8367e1Bb143E90bb3F0512",
  "abi": [
    {
      "anonymous": false,
      "inputs": [
        {
          "indexed": false,
          "internalType": "string",
          "name": "message",
          "type": "string"
        }
      ],
      "name": "Debug",
      "type": "event"
    },
    {
      "anonymous": false,
      "inputs": [
        {
          "indexed": true,
          "internalType": "uint256",
          "name": "id",
          "type": "uint256"
        },
        {
          "indexed": false,
          "internalType": "bool",
          "name": "isAvailable",
          "type": "bool"
        }
      ],
      "name": "PropertyAvailabilityUpdated",
      "type": "event"
    },
    {
      "anonymous": false,
      "inputs": [
        {
          "indexed": true,
          "internalType": "uint256",
          "name": "id",
          "type": "uint256"
        },
        {
          "indexed": true,
          "internalType": "address",
          "name": "owner",
          "type": "address"
        },
        {
          "indexed": false,
          "internalType": "uint256",
          "name": "pricePerDay",
          "type": "uint256"
        }
      ],
      "name": "PropertyListed",
      "type": "event"
    },
    {
      "inputs": [
        {
          "internalType": "uint256",
          "name": "_propertyId",
          "type": "uint256"
        }
      ],
      "name": "getProperty",
      "outputs": [
        {
          "internalType": "address",
          "name": "owner",
          "type": "address"
        },
        {
          "internalType": "uint256",
          "name": "pricePerDay",
          "type": "uint256"
        },
        {
          "internalType": "bool",
          "name": "isAvailable",
          "type": "bool"
        }
      ],
      "stateMutability": "view",
      "type": "function"
    },
    {
      "inputs": [
        {
          "internalType": "uint256",
          "name": "_pricePerDay",
          "type": "uint256"
        }
      ],
      "name": "listProperty",
      "outputs": [],
      "stateMutability": "nonpayable",
      "type": "function"
    },
    {
      "inputs": [
        {
          "internalType": "uint256",
          "name": "",
          "type": "uint256"
        }
      ],
      "name": "properties",
      "outputs": [
        {
          "internalType": "address",
          "name": "owner",
          "type": "address"
        },
        {
          "internalType": "uint256",
          "name": "pricePerDay",
          "type": "uint256"
        },
        {
          "internalType": "bool",
          "name": "isAvailable",
          "type": "bool"
        }
      ],
      "stateMutability": "view",
      "type": "function"
    },
    {
      "inputs": [],
      "name": "propertyCount",
      "outputs": [
        {
          "internalType": "uint256",
          "name": "",
          "type": "uint256"
        }
      ],
      "stateMutability": "view",
      "type": "function"
    },
    {
      "inputs": [
        {
          "internalType": "uint256",
          "name": "_propertyId",
          "type": "uint256"
        },
        {
          "internalType": "bool",
          "name": "_availability",
          "type": "bool"
        }
      ],
      "name": "updatePropertyAvailability",
      "outputs": [],
      "stateMutability": "payable",
      "type": "function"
    }
  ],
  "transactionHash": "0x470c543327f0d5de60ed6b9245df22b673465a07e6229353e784d9cab0a0eb79",
  "args": [],
  "numDeployments": 1,
  "solcInputHash": "6d1f5cf23b13022db6783a407774449c",
  "bytecode": "0x608060405234801561001057600080fd5b50610537806100206000396000f3fe60806040526004361061005a5760003560e01c8063b6aee1cf11610043578063b6aee1cf14610104578063c361a33514610124578063f7b108081461014857600080fd5b806332665ffb1461005f578063945e1307146100ef575b600080fd5b34801561006b57600080fd5b506100b661007a366004610454565b60009081526020819052604090208054600182015460029092015473ffffffffffffffffffffffffffffffffffffffff9091169260ff90911690565b6040805173ffffffffffffffffffffffffffffffffffffffff909416845260208401929092521515908201526060015b60405180910390f35b6101026100fd36600461046d565b61019e565b005b34801561011057600080fd5b5061010261011f366004610454565b6102cf565b34801561013057600080fd5b5061013a60015481565b6040519081526020016100e6565b34801561015457600080fd5b506100b6610163366004610454565b60006020819052908152604090208054600182015460029092015473ffffffffffffffffffffffffffffffffffffffff909116919060ff1683565b600082815260208190526040902054829073ffffffffffffffffffffffffffffffffffffffff163314610258576040517f08c379a000000000000000000000000000000000000000000000000000000000815260206004820152602b60248201527f4f6e6c792070726f7065727479206f776e65722063616e20706572666f726d2060448201527f7468697320616374696f6e00000000000000000000000000000000000000000060648201526084015b60405180910390fd5b6000838152602081815260409182902060020180547fffffffffffffffffffffffffffffffffffffffffffffffffffffffffffffff0016851515908117909155915191825284917ff638b9f4d25b46c83266caa2663c4722001b68f1c5c31e5b19f935107398f2e8910160405180910390a2505050565b6000811161035f576040517f08c379a000000000000000000000000000000000000000000000000000000000815260206004820152602760248201527f50726963652070657220646179206d757374206265206772656174657220746860448201527f616e207a65726f00000000000000000000000000000000000000000000000000606482015260840161024f565b60408051606081018252338152602080820184815260018385018181528154600090815293849052948320935184547fffffffffffffffffffffffff00000000000000000000000000000000000000001673ffffffffffffffffffffffffffffffffffffffff9091161784559051838201559251600290920180547fffffffffffffffffffffffffffffffffffffffffffffffffffffffffffffff00169215159290921790915581549190610413836104a2565b90915550506001546040518281523391907f23fb658c1698b92f5fe511a079c17ecf7965cbc3f1b873328c67e2c3c0820f1f9060200160405180910390a350565b60006020828403121561046657600080fd5b5035919050565b6000806040838503121561048057600080fd5b823591506020830135801515811461049757600080fd5b809150509250929050565b60007fffffffffffffffffffffffffffffffffffffffffffffffffffffffffffffffff82036104fa577f4e487b7100000000000000000000000000000000000000000000000000000000600052601160045260246000fd5b506001019056fea2646970667358221220a56a416e980fdfb226124c8a211c674d2426c86c7c27bdd6374a8bd564e3e52c64736f6c63430008180033",
  "devdoc": {
    "kind": "dev",
    "methods": {},
    "version": 1
  },
  "userdoc": {
    "kind": "user",
    "methods": {},
    "version": 1
  },
  "storageLayout": {
    "storage": [
      {
        "astId": 124,
        "contract": "contracts/PropertyManager.sol:PropertyManager",
        "label": "properties",
        "offset": 0,
        "slot": "0",
        "type": "t_mapping(t_uint256,t_struct(Property)119_storage)"
      },
      {
        "astId": 126,
        "contract": "contracts/PropertyManager.sol:PropertyManager",
        "label": "propertyCount",
        "offset": 0,
        "slot": "1",
        "type": "t_uint256"
      }
    ],
    "types": {
      "t_address": {
        "encoding": "inplace",
        "label": "address",
        "numberOfBytes": "20"
      },
      "t_bool": {
        "encoding": "inplace",
        "label": "bool",
        "numberOfBytes": "1"
      },
      "t_mapping(t_uint256,t_struct(Property)119_storage)": {
        "encoding": "mapping",
        "key": "t_uint256",
        "label": "mapping(uint256 => struct PropertyManager.Property)",
        "numberOfBytes": "32",
        "value": "t_struct(Property)119_storage"
      },
      "t_struct(Property)119_storage": {
        "encoding": "inplace",
        "label": "struct PropertyManager.Property",
        "members": [
          {
            "astId": 114,
            "contract": "contracts/PropertyManager.sol:PropertyManager",
            "label": "owner",
            "offset": 0,
            "slot": "0",
            "type": "t_address"
          },
          {
            "astId": 116,
            "contract": "contracts/PropertyManager.sol:PropertyManager",
            "label": "pricePerDay",
            "offset": 0,
            "slot": "1",
            "type": "t_uint256"
          },
          {
            "astId": 118,
            "contract": "contracts/PropertyManager.sol:PropertyManager",
            "label": "isAvailable",
            "offset": 0,
            "slot": "2",
            "type": "t_bool"
          }
        ],
        "numberOfBytes": "96"
      },
      "t_uint256": {
        "encoding": "inplace",
        "label": "uint256",
        "numberOfBytes": "32"
      }
    }
  }
}