{
  "address": "0x9fE46736679d2D9a65F0992F2272dE9f3c7fa6e0",
  "abi": [
    {
      "inputs": [
        {
          "internalType": "address",
          "name": "_propertyManagerAddress",
          "type": "address"
        },
        {
          "internalType": "address",
          "name": "priceFeed",
          "type": "address"
        }
      ],
      "stateMutability": "nonpayable",
      "type": "constructor"
    },
    {
      "anonymous": false,
      "inputs": [
        {
          "indexed": false,
          "internalType": "string",
          "name": "message",
          "type": "string"
        }
      ],
      "name": "Debug",
      "type": "event"
    },
    {
      "anonymous": false,
      "inputs": [
        {
          "indexed": true,
          "internalType": "uint256",
          "name": "id",
          "type": "uint256"
        },
        {
          "indexed": true,
          "internalType": "address",
          "name": "owner",
          "type": "address"
        },
        {
          "indexed": true,
          "internalType": "address",
          "name": "tenant",
          "type": "address"
        },
        {
          "indexed": false,
          "internalType": "uint256",
          "name": "propertyId",
          "type": "uint256"
        },
        {
          "indexed": false,
          "internalType": "uint256",
          "name": "endDate",
          "type": "uint256"
        }
      ],
      "name": "RentalCompleted",
      "type": "event"
    },
    {
      "anonymous": false,
      "inputs": [
        {
          "indexed": true,
          "internalType": "uint256",
          "name": "id",
          "type": "uint256"
        },
        {
          "indexed": true,
          "internalType": "address",
          "name": "owner",
          "type": "address"
        },
        {
          "indexed": true,
          "internalType": "address",
          "name": "tenant",
          "type": "address"
        },
        {
          "indexed": false,
          "internalType": "uint256",
          "name": "propertyId",
          "type": "uint256"
        }
      ],
      "name": "RentalConfirmed",
      "type": "event"
    },
    {
      "anonymous": false,
      "inputs": [
        {
          "indexed": true,
          "internalType": "uint256",
          "name": "id",
          "type": "uint256"
        },
        {
          "indexed": true,
          "internalType": "address",
          "name": "owner",
          "type": "address"
        },
        {
          "indexed": true,
          "internalType": "address",
          "name": "tenant",
          "type": "address"
        },
        {
          "indexed": false,
          "internalType": "uint256",
          "name": "propertyId",
          "type": "uint256"
        },
        {
          "indexed": false,
          "internalType": "uint256",
          "name": "startDate",
          "type": "uint256"
        },
        {
          "indexed": false,
          "internalType": "uint256",
          "name": "duration",
          "type": "uint256"
        },
        {
          "indexed": false,
          "internalType": "uint256",
          "name": "totalPrice",
          "type": "uint256"
        }
      ],
      "name": "RentalCreated",
      "type": "event"
    },
    {
      "anonymous": false,
      "inputs": [
        {
          "indexed": true,
          "internalType": "uint256",
          "name": "id",
          "type": "uint256"
        },
        {
          "indexed": true,
          "internalType": "address",
          "name": "owner",
          "type": "address"
        },
        {
          "indexed": true,
          "internalType": "address",
          "name": "tenant",
          "type": "address"
        },
        {
          "indexed": false,
          "internalType": "uint256",
          "name": "propertyId",
          "type": "uint256"
        }
      ],
      "name": "RentalRejected",
      "type": "event"
    },
    {
      "inputs": [
        {
          "internalType": "uint256",
          "name": "_pricePerDay",
          "type": "uint256"
        },
        {
          "internalType": "uint256",
          "name": "_duration",
          "type": "uint256"
        }
      ],
      "name": "calculateTotalPrice",
      "outputs": [
        {
          "internalType": "uint256",
          "name": "_totalEth",
          "type": "uint256"
        },
        {
          "internalType": "uint256",
          "name": "_totalUsd",
          "type": "uint256"
        }
      ],
      "stateMutability": "view",
      "type": "function"
    },
    {
      "inputs": [
        {
          "internalType": "uint256",
          "name": "_rentalId",
          "type": "uint256"
        }
      ],
      "name": "completeRental",
      "outputs": [],
      "stateMutability": "nonpayable",
      "type": "function"
    },
    {
      "inputs": [
        {
          "internalType": "uint256",
          "name": "_rentalId",
          "type": "uint256"
        }
      ],
      "name": "confirmPropertyRent",
      "outputs": [],
      "stateMutability": "nonpayable",
      "type": "function"
    },
    {
      "inputs": [
        {
          "internalType": "uint256",
          "name": "_rentalId",
          "type": "uint256"
        }
      ],
      "name": "getRental",
      "outputs": [
        {
          "components": [
            {
              "internalType": "address",
              "name": "owner",
              "type": "address"
            },
            {
              "internalType": "address",
              "name": "tenant",
              "type": "address"
            },
            {
              "internalType": "uint256",
              "name": "propertyId",
              "type": "uint256"
            },
            {
              "internalType": "uint256",
              "name": "startDate",
              "type": "uint256"
            },
            {
              "internalType": "uint256",
              "name": "duration",
              "type": "uint256"
            },
            {
              "internalType": "uint256",
              "name": "totalPrice",
              "type": "uint256"
            },
            {
              "internalType": "bool",
              "name": "isActive",
              "type": "bool"
            },
            {
              "internalType": "bool",
              "name": "isWaitingConfirmation",
              "type": "bool"
            }
          ],
          "internalType": "struct RentalManager.Rental",
          "name": "rental",
          "type": "tuple"
        }
      ],
      "stateMutability": "view",
      "type": "function"
    },
    {
      "inputs": [],
      "name": "propertyManager",
      "outputs": [
        {
          "internalType": "contract PropertyManager",
          "name": "",
          "type": "address"
        }
      ],
      "stateMutability": "view",
      "type": "function"
    },
    {
      "inputs": [
        {
          "internalType": "uint256",
          "name": "_rentalId",
          "type": "uint256"
        }
      ],
      "name": "rejectPropertyRent",
      "outputs": [],
      "stateMutability": "nonpayable",
      "type": "function"
    },
    {
      "inputs": [
        {
          "internalType": "uint256",
          "name": "_propertyId",
          "type": "uint256"
        },
        {
          "internalType": "uint256",
          "name": "_duration",
          "type": "uint256"
        }
      ],
      "name": "rentProperty",
      "outputs": [],
      "stateMutability": "payable",
      "type": "function"
    },
    {
      "inputs": [],
      "name": "rentalCount",
      "outputs": [
        {
          "internalType": "uint256",
          "name": "",
          "type": "uint256"
        }
      ],
      "stateMutability": "view",
      "type": "function"
    },
    {
      "inputs": [
        {
          "internalType": "uint256",
          "name": "",
          "type": "uint256"
        }
      ],
      "name": "rentals",
      "outputs": [
        {
          "internalType": "address",
          "name": "owner",
          "type": "address"
        },
        {
          "internalType": "address",
          "name": "tenant",
          "type": "address"
        },
        {
          "internalType": "uint256",
          "name": "propertyId",
          "type": "uint256"
        },
        {
          "internalType": "uint256",
          "name": "startDate",
          "type": "uint256"
        },
        {
          "internalType": "uint256",
          "name": "duration",
          "type": "uint256"
        },
        {
          "internalType": "uint256",
          "name": "totalPrice",
          "type": "uint256"
        },
        {
          "internalType": "bool",
          "name": "isActive",
          "type": "bool"
        },
        {
          "internalType": "bool",
          "name": "isWaitingConfirmation",
          "type": "bool"
        }
      ],
      "stateMutability": "view",
      "type": "function"
    }
  ],
  "transactionHash": "0x07de0a758d7c594662bb5d5c8cc4014823243fbcaf957d91231ba2ffd811be00",
  "args": [
    "0xe7f1725E7734CE288F8367e1Bb143E90bb3F0512",
    "0x5FbDB2315678afecb367f032d93F642f64180aa3"
  ],
  "numDeployments": 1,
  "solcInputHash": "526081731200c2868e7e0c0da1ef2690",
  "bytecode": "0x608060405234801561001057600080fd5b506040516113ca3803806113ca83398101604081905261002f9161007c565b600380546001600160a01b039384166001600160a01b031991821617909155600080549290931691161790556100af565b80516001600160a01b038116811461007757600080fd5b919050565b6000806040838503121561008f57600080fd5b61009883610060565b91506100a660208401610060565b90509250929050565b61130c806100be6000396000f3fe6080604052600436106100965760003560e01c8063896f018f11610069578063af94a1d11161004e578063af94a1d1146102ba578063e19c71641461038f578063e7356cb5146103af57600080fd5b8063896f018f1461027a57806394c5056c1461029a57600080fd5b80630a294ab61461009b57806312a076b9146100c45780633ec4ebb7146100f9578063652bd29e1461010e575b600080fd5b3480156100a757600080fd5b506100b160025481565b6040519081526020015b60405180910390f35b3480156100d057600080fd5b506100e46100df3660046110b3565b610401565b604080519283526020830191909152016100bb565b61010c6101073660046110b3565b610445565b005b34801561011a57600080fd5b506101fb6101293660046110d5565b6040805161010081018252600080825260208201819052918101829052606081018290526080810182905260a0810182905260c0810182905260e08101919091525060009081526001602081815260409283902083516101008082018652825473ffffffffffffffffffffffffffffffffffffffff908116835294830154909416928101929092526002810154938201939093526003830154606082015260048301546080820152600583015460a082015260069092015460ff808216151560c085015291900416151560e082015290565b6040516100bb919060006101008201905073ffffffffffffffffffffffffffffffffffffffff8084511683528060208501511660208401525060408301516040830152606083015160608301526080830151608083015260a083015160a083015260c0830151151560c083015260e0830151151560e083015292915050565b34801561028657600080fd5b5061010c6102953660046110d5565b61078b565b3480156102a657600080fd5b5061010c6102b53660046110d5565b610a2b565b3480156102c657600080fd5b506103386102d53660046110d5565b6001602081905260009182526040909120805491810154600282015460038301546004840154600585015460069095015473ffffffffffffffffffffffffffffffffffffffff968716969094169492939192909160ff8082169161010090041688565b6040805173ffffffffffffffffffffffffffffffffffffffff998a168152989097166020890152958701949094526060860192909252608085015260a0840152151560c0830152151560e0820152610100016100bb565b34801561039b57600080fd5b5061010c6103aa3660046110d5565b610d0b565b3480156103bb57600080fd5b506003546103dc9073ffffffffffffffffffffffffffffffffffffffff1681565b60405173ffffffffffffffffffffffffffffffffffffffff90911681526020016100bb565b6000808061040f848661111d565b600080549192509061043890839073ffffffffffffffffffffffffffffffffffffffff16610fe2565b9196919550909350505050565b6003546040517f32665ffb000000000000000000000000000000000000000000000000000000008152600481018490526000918291829173ffffffffffffffffffffffffffffffffffffffff16906332665ffb90602401606060405180830381865afa1580156104b9573d6000803e3d6000fd5b505050506040513d601f19601f820116820180604052508101906104dd9190611134565b9250925092508061054f576040517f08c379a000000000000000000000000000000000000000000000000000000000815260206004820152601f60248201527f50726f7065727479206e6f7420617661696c61626c6520666f722072656e740060448201526064015b60405180910390fd5b8361056283670de0b6b3a764000061111d565b61056c919061111d565b3410156105d5576040517f08c379a000000000000000000000000000000000000000000000000000000000815260206004820152601760248201527f496e73756666696369656e742066756e64732073656e740000000000000000006044820152606401610546565b60006105e1858461111d565b60408051610100808201835273ffffffffffffffffffffffffffffffffffffffff80891683523360208085019182528486018d81524260608701908152608087018e815260a088018a8152600060c08a01818152600160e08c01818152600280548552988290529c83209b518c54908b167fffffffffffffffffffffffff0000000000000000000000000000000000000000918216178d559851908c01805491909a1698169790971790975592518885015590516003880155516004870155516005860155905160069094018054955115159093027fffffffffffffffffffffffffffffffffffffffffffffffffffffffffffff00ff941515949094167fffffffffffffffffffffffffffffffffffffffffffffffffffffffffffff000090951694909417929092179055815492935061071a83611195565b90915550506002546040805188815242602082015290810187905260608101839052339173ffffffffffffffffffffffffffffffffffffffff8716917f67378c91e5b913c39435f668d3239f84ae8508781425a08941c31e8598dfa1379060800160405180910390a4505050505050565b600081815260016020526040902054819073ffffffffffffffffffffffffffffffffffffffff163314610840576040517f08c379a000000000000000000000000000000000000000000000000000000000815260206004820152602b60248201527f4f6e6c792070726f7065727479206f776e65722063616e20706572666f726d2060448201527f7468697320616374696f6e0000000000000000000000000000000000000000006064820152608401610546565b60008281526001602052604090206006015460ff166108bb576040517f08c379a000000000000000000000000000000000000000000000000000000000815260206004820152601860248201527f52656e74616c20616c726561647920636f6d706c6574656400000000000000006044820152606401610546565b6000828152600160205260408120600401546108da906201518061111d565b6000848152600160205260409020600301546108f691906111cd565b905080421015610988576040517f08c379a000000000000000000000000000000000000000000000000000000000815260206004820152602160248201527f52656e74616c206475726174696f6e206e6f7420636f6d706c6574656420796560448201527f74000000000000000000000000000000000000000000000000000000000000006064820152608401610546565b6000838152600160208181526040928390206006810180547fffffffffffffffffffffffffffffffffffffffffffffffffffffffffffffff001690559182015482546002909301548451908152429281019290925273ffffffffffffffffffffffffffffffffffffffff9081169392169186917f5de78b4d2d7206a49e3706426ccea723ae15e14317603aef4f1ee931bcf2a07b910160405180910390a4505050565b600081815260016020526040902054819073ffffffffffffffffffffffffffffffffffffffff163314610ae0576040517f08c379a000000000000000000000000000000000000000000000000000000000815260206004820152602b60248201527f4f6e6c792070726f7065727479206f776e65722063616e20706572666f726d2060448201527f7468697320616374696f6e0000000000000000000000000000000000000000006064820152608401610546565b6000828152600160205260409020600601548290610100900460ff16610b88576040517f08c379a000000000000000000000000000000000000000000000000000000000815260206004820152602660248201527f52656e74616c206973206e6f742077616974696e6720666f7220636f6e66697260448201527f6d6174696f6e00000000000000000000000000000000000000000000000000006064820152608401610546565b600083815260016020819052604082206006810180547fffffffffffffffffffffffffffffffffffffffffffffffffffffffffffff00ff16905590810154600582015491929173ffffffffffffffffffffffffffffffffffffffff90911690610bf990670de0b6b3a764000061111d565b604051600081818185875af1925050503d8060008114610c35576040519150601f19603f3d011682016040523d82523d6000602084013e610c3a565b606091505b5050905080610ca5576040517f08c379a000000000000000000000000000000000000000000000000000000000815260206004820152601060248201527f5472616e73666572206661696c65642e000000000000000000000000000000006044820152606401610546565b60018201548254600284015460405190815273ffffffffffffffffffffffffffffffffffffffff928316929091169087907fbff1757aeff095cbcb3891a4af59a5e31ee24e16d4802ceaf98e419c3a44440e906020015b60405180910390a45050505050565b600081815260016020526040902054819073ffffffffffffffffffffffffffffffffffffffff163314610dc0576040517f08c379a000000000000000000000000000000000000000000000000000000000815260206004820152602b60248201527f4f6e6c792070726f7065727479206f776e65722063616e20706572666f726d2060448201527f7468697320616374696f6e0000000000000000000000000000000000000000006064820152608401610546565b6000828152600160205260409020600601548290610100900460ff16610e68576040517f08c379a000000000000000000000000000000000000000000000000000000000815260206004820152602660248201527f52656e74616c206973206e6f742077616974696e6720666f7220636f6e66697260448201527f6d6174696f6e00000000000000000000000000000000000000000000000000006064820152608401610546565b600083815260016020819052604082206006810180547fffffffffffffffffffffffffffffffffffffffffffffffffffffffffffff0000169092179091558054600582015491929173ffffffffffffffffffffffffffffffffffffffff90911690610edb90670de0b6b3a764000061111d565b604051600081818185875af1925050503d8060008114610f17576040519150601f19603f3d011682016040523d82523d6000602084013e610f1c565b606091505b5050905080610f87576040517f08c379a000000000000000000000000000000000000000000000000000000000815260206004820152601060248201527f5472616e73666572206661696c65642e000000000000000000000000000000006044820152606401610546565b60018201548254600284015460405190815273ffffffffffffffffffffffffffffffffffffffff928316929091169087907fad851ff694431ffff28646827e88a0861bc9ee4ed34ad65b1f9c3dcea2326ae790602001610cfc565b600080610fee8361100f565b90506000611004610fff868461111d565b61109f565b925050505b92915050565b6000808273ffffffffffffffffffffffffffffffffffffffff1663feaf968c6040518163ffffffff1660e01b815260040160a060405180830381865afa15801561105d573d6000803e3d6000fd5b505050506040513d601f19601f8201168201806040525081019061108191906111ff565b505050915050806402540be400611098919061124f565b9392505050565b6000611009670de0b6b3a76400008361129b565b600080604083850312156110c657600080fd5b50508035926020909101359150565b6000602082840312156110e757600080fd5b5035919050565b7f4e487b7100000000000000000000000000000000000000000000000000000000600052601160045260246000fd5b8082028115828204841417611009576110096110ee565b60008060006060848603121561114957600080fd5b835173ffffffffffffffffffffffffffffffffffffffff8116811461116d57600080fd5b602085015160408601519194509250801515811461118a57600080fd5b809150509250925092565b60007fffffffffffffffffffffffffffffffffffffffffffffffffffffffffffffffff82036111c6576111c66110ee565b5060010190565b80820180821115611009576110096110ee565b805169ffffffffffffffffffff811681146111fa57600080fd5b919050565b600080600080600060a0868803121561121757600080fd5b611220866111e0565b9450602086015193506040860151925060608601519150611243608087016111e0565b90509295509295909350565b808202600082127f800000000000000000000000000000000000000000000000000000000000000084141615611287576112876110ee565b8181058314821517611009576110096110ee565b6000826112d1577f4e487b7100000000000000000000000000000000000000000000000000000000600052601260045260246000fd5b50049056fea2646970667358221220a41f16dac34a95b476a41fe05b12f2423c5d547a6238c4ac531bb0a280009ded64736f6c63430008180033",
  "devdoc": {
    "kind": "dev",
    "methods": {},
    "version": 1
  },
  "userdoc": {
    "kind": "user",
    "methods": {},
    "version": 1
  },
  "storageLayout": {
    "storage": [
      {
        "astId": 257,
        "contract": "contracts/RentalManager.sol:RentalManager",
        "label": "s_priceFeed",
        "offset": 0,
        "slot": "0",
        "type": "t_contract(AggregatorV3Interface)45"
      },
      {
        "astId": 279,
        "contract": "contracts/RentalManager.sol:RentalManager",
        "label": "rentals",
        "offset": 0,
        "slot": "1",
        "type": "t_mapping(t_uint256,t_struct(Rental)274_storage)"
      },
      {
        "astId": 281,
        "contract": "contracts/RentalManager.sol:RentalManager",
        "label": "rentalCount",
        "offset": 0,
        "slot": "2",
        "type": "t_uint256"
      },
      {
        "astId": 315,
        "contract": "contracts/RentalManager.sol:RentalManager",
        "label": "propertyManager",
        "offset": 0,
        "slot": "3",
        "type": "t_contract(PropertyManager)246"
      }
    ],
    "types": {
      "t_address": {
        "encoding": "inplace",
        "label": "address",
        "numberOfBytes": "20"
      },
      "t_bool": {
        "encoding": "inplace",
        "label": "bool",
        "numberOfBytes": "1"
      },
      "t_contract(AggregatorV3Interface)45": {
        "encoding": "inplace",
        "label": "contract AggregatorV3Interface",
        "numberOfBytes": "20"
      },
      "t_contract(PropertyManager)246": {
        "encoding": "inplace",
        "label": "contract PropertyManager",
        "numberOfBytes": "20"
      },
      "t_mapping(t_uint256,t_struct(Rental)274_storage)": {
        "encoding": "mapping",
        "key": "t_uint256",
        "label": "mapping(uint256 => struct RentalManager.Rental)",
        "numberOfBytes": "32",
        "value": "t_struct(Rental)274_storage"
      },
      "t_struct(Rental)274_storage": {
        "encoding": "inplace",
        "label": "struct RentalManager.Rental",
        "members": [
          {
            "astId": 259,
            "contract": "contracts/RentalManager.sol:RentalManager",
            "label": "owner",
            "offset": 0,
            "slot": "0",
            "type": "t_address"
          },
          {
            "astId": 261,
            "contract": "contracts/RentalManager.sol:RentalManager",
            "label": "tenant",
            "offset": 0,
            "slot": "1",
            "type": "t_address"
          },
          {
            "astId": 263,
            "contract": "contracts/RentalManager.sol:RentalManager",
            "label": "propertyId",
            "offset": 0,
            "slot": "2",
            "type": "t_uint256"
          },
          {
            "astId": 265,
            "contract": "contracts/RentalManager.sol:RentalManager",
            "label": "startDate",
            "offset": 0,
            "slot": "3",
            "type": "t_uint256"
          },
          {
            "astId": 267,
            "contract": "contracts/RentalManager.sol:RentalManager",
            "label": "duration",
            "offset": 0,
            "slot": "4",
            "type": "t_uint256"
          },
          {
            "astId": 269,
            "contract": "contracts/RentalManager.sol:RentalManager",
            "label": "totalPrice",
            "offset": 0,
            "slot": "5",
            "type": "t_uint256"
          },
          {
            "astId": 271,
            "contract": "contracts/RentalManager.sol:RentalManager",
            "label": "isActive",
            "offset": 0,
            "slot": "6",
            "type": "t_bool"
          },
          {
            "astId": 273,
            "contract": "contracts/RentalManager.sol:RentalManager",
            "label": "isWaitingConfirmation",
            "offset": 1,
            "slot": "6",
            "type": "t_bool"
          }
        ],
        "numberOfBytes": "224"
      },
      "t_uint256": {
        "encoding": "inplace",
        "label": "uint256",
        "numberOfBytes": "32"
      }
    }
  }
}